:100000000C9412140C943A140C943A140C943A1460
:100010000C943A140C943A140C943A140C943A1428
:100020000C943A140C943A140C940A2B0C94792BDB
:100030000C943A140C943A140C943A140C943A1408
:100040000C943A140C943A140C943A140C943A14F8
:100050000C943A140C943A140C943A140C94AB2D5E
:100060000C943A140C943A140C943A140C943A14D8
:100070000C943A140C943A140C943A140C943A14C8
:100080000C943A140C943A140C943A140C943A14B8
:100090000C943A140C943A140C943A140C943A14A8
:1000A0000C943A140C943A140C943A140C1000FE6C
:1000B00002AA52AA52AA5202FE0000070404050432
:1000C00005040504070000FE02AA52AA52AA520221
:1000D000FE00000F000A050A050A05000F0052AADB
:1000E00052AA52AA52AA5202FE00050405040504AF
:1000F00005040504070000FF00AA55AA55AA5500EB
:10010000FF0000070404050405040504070000FEC1
:1001100002AA52AA52AA52AA52AA0007040405042B
:1001200005040504050452AA52AA52AA52AA52AAC8
:1001300052AA05040504050405040504050400FF8E
:1001400000AA55AA55AA5500FF00000F000A050A8B
:10015000050A05000F0052AB50AA55AA55AA55A88A
:1001600053AA050C010A050A050A05000D04000042
:10017000000000AA55AA5500FF0000000000000A78
:10018000050A05000F0040A040A040A040A040A0EC
:1001900040A005040504050405040504050400FF4A
:1001A00000AA55AA550000000000000F000A050A29
:1001B000050000000000522A522A522A522A522ACE
:1001C000522A0000000000000000000000000000B3
:1001D000000000A040A040A040A000000000000AD5
:1001E000050A05000D0440A040A040A0400000000A
:1001F0000000050C010A050A0500000000000000CF
:100200000000002A552A5528532A0000000000004B
:10021000000000000000522B502A552A5500000013
:1002200000000000000000000000000000000000CE
:10023000000000AA55AA55A853AA00000000000A11
:10024000050A05000D0440A040A040A040A040A029
:1002500040A0050C010A050A050A05000D0452AB71
:1002600050AA55AA550000000000050C010A050A15
:10027000050000000000522B502A552A552A552807
:10028000532A00000000000000000000000052ABF4
:1002900050AA55AA55AA55A853AA05040504050451
:1002A00005040504050452AA52AA52AA52AA52AA47
:1002B00052AA050C010A050A050A05000D0400FFF3
:1002C00000AA55AA55AA55A853AA000F000A050A64
:1002D000050A05000D0452AB50AA55AA55AA5500AF
:1002E000FF00050C010A050A050A05000F0000FEC3
:1002F00002AA52AA52AA52AA52AA000F000A050A3A
:10030000050A05000D0452AA52AA52AA52AA520284
:10031000FE00050C010A050A050A05000F0000FF92
:1003200000AA55AA55AA55A853AA00070404050413
:1003300005040504050452AB50AA55AA55AA550058
:10034000FF00050405040504050405040700242432
:1003500024242424242424E43C0709090909090944
:1003600009090F01000049494949494949494F785C
:10037000C00002020202020202020202030E010196
:10038000FF0202FE0404FC0808F800000F00000F42
:1003900000000F00000FF80808FC0404FE0202FF32
:1003A00001010F00000F00000F00000F0000073CCC
:1003B000E4242424242424E43C070000010F090938
:1003C00009090F01000000C0784F494949494F7899
:1003D000C0000E030202020202020202030E010129
:1003E000FF0202FE0404FC0808F808080F040407D2
:1003F000020203010101F80808FC0404FE0202FFE6
:1004000001010101010302020704040F0808FF04AF
:10041000FF04FF04FF04FF64FF000F020F020F023E
:100420000F020F020F000F02070207020702070266
:100430000F000000000000000000000000000C1091
:10044000EC2EEC02EE06366636062EEC07040700AC
:1004500007040505050504070908000008002A002F
:100460000800000000220008002200000000080030
:100470002A000800000000220008002200000100FD
:100480000000010202020101010101070605050445
:1004900003020100000000000C10C060B0ECECECA6
:1004A000F0E0C000000003060D0B0F0F0F07030064
:1004B0000000C060B0ECEEECF0E0C000000003060D
:1004C0000D0B0F0F0F0703000000C060B0ECEEED46
:1004D000F0E0C000000003060D0B0F0F0F07030034
:1004E0000000C060B0ECEEEDF1E0C00000000306DB
:1004F0000D0B0F0F0F0703000000C060B0ECEEED16
:10050000F1E2C000000003060D0B0F0F0F07030000
:100510000000C060B0ECEEEDF1E2C40000000306A4
:100520000D0B0F0F0F0703000000C060B0ECEEEDE5
:10053000F1E2C404000003060D0B0F0F0F070300C8
:100540000000C060B0ECEEEDF1E2C404040003066C
:100550000D0B0F0F0F0703000000C060B0ECEEEDB5
:10056000F1E2C404040203060D0B0F0F0F07030092
:1005700000000C1000F617F7F60000EC2EEEEC0071
:10058000000505050500000B0A0B0B000C1080C0D0
:100590006CEA6A9A9A7A1A1A0A0A05020507000092
:1005A0000000000000000808007E7E7E7E7E7E0047
:1005B00000003C3C3C3C000000C0CEDFFFFFFFDF02
:1005C000CE0000000000000F0F0307070303000028
:1005D0000000CEDFFFFFFFDFCEC0000000030307F7
:1005E00007030F0F000000000000808EDFFFFFFFF9
:1005F000DF8E80000000010D0D0703030F0D0900C1
:100600000000008EDFFFFFFFDF8E00000000010111
:10061000030F0F0B0301010000C0CEDFFFFFFFDF60
:10062000CE0000000000000F0F03070703030000C7
:100630000000CEDFFFFFFFDFCEC000000003030796
:1006400007030F0F0000000000808EDFFFFFFFDFB9
:100650008E80000000090F0F0303070F0D0100003B
:1006600000008EDFFFFFFFDF8E00000000010103AE
:100670000B0F0F03010100000C1000C00EDFAF6F65
:10068000AFDF4E0000000000000D0D010504030364
:10069000000000004EDFAF6FAFDF0EC000000003B0
:1006A000030405010D0D000000000000808E5FE7CF
:1006B000EFBFD30A80000000010D0C0501010D0CF5
:1006C00009000000008E5FA7EFBF538A0000000002
:1006D0000101000D0D090001010000C00EDFEB2338
:1006E000EBDF4E0000000000000D0D0005040303C9
:1006F000000000004EDFEB23EBDF0EC00000000324
:10070000030405000D0D0000000000800AD3BFEFB8
:10071000E75F8E80000000090C0D0101050C0D0142
:10072000000000008A53BFEFA75F8E0000000001A9
:100730000100090D0D00010100000E10C0FCFEFFBC
:10074000FFFFFFFFFFFFFFFFFFFF0F0F0F0F0F0F59
:100750000F0F0F0F0F0F0F0F0000008A9FBFFFFF3B
:10076000FFBF9F8A0000000000000000000F0F0381
:100770000F0F00000000000000001E3FBFFFFFBF82
:100780003F1F82808080800000000003030F0F0F56
:1007900003020703010000000000008A9FBFFFFF63
:1007A000FFBF9F8A0000000000000000010F0F0340
:1007B0000F0F010000000000000080808080821F79
:1007C0003FBFFFFFBF3F1E00000000000103070204
:1007D000030F0F0F0303000010100000008A17BF63
:1007E000BFBFBFBF178A0000000000000000000D5F
:1007F0000D010D0D00000000000000001E3FA71BB2
:1008000037BB231B82808080800000000003000D26
:100810000D0803020503010000000000008A973B59
:10082000835B833B978A0000000000000000010CFE
:100830000803080C01000000000000008080808098
:10084000821B23BB371BA73F1E00000000000103D3
:10085000050203080D0D00030000008E9FBFFFFF7F
:10086000FFBF1F0E00000000010F0F030707030367
:100870000000000E1FBFFFFFFFBF9F8E00000003A0
:10088000030707030F0F0100000080809EBFFFFFDA
:10089000FFFFFF9F828001010D0D070303030F0D72
:1008A000090000001E3FFFFFFFFF3F1F0200000086
:1008B0000203030F0F0B03020000008E9FBFFFFF18
:1008C000FFBF1F0E00000000010F0F030707030307
:1008D0000000000E1FBFFFFFFFBF9F8E0000000340
:1008E000030707030F0F0100000080829FFFFFFF37
:1008F000FFFFBF9E808000090D0F030303070D0D4E
:10090000010100021F3FFFFFFFFF3F1E000000002C
:1009100002030B0F0F03030200000C10008A17BF25
:10092000BFBFBFBF170A00000000000D0D01050486
:1009300003030000000A17BFBFBFBFBF178A000034
:100940000003030405010D0D0000000080801E3F20
:10095000A79BB7BBA31B028001010C0D0501010180
:100960000D0D080000001E3FA71B37BB231B020014
:1009700000000203000D0D0803020000008A17BBEF
:10098000A3BBA3BB170A00000000000D0D01050466
:1009900003030000000A17BBA3BBA3BB178A000018
:1009A0000003030405010D0D0000000080021BA3DD
:1009B000BBB79BA73F1E808000080D0D01010105FC
:1009C0000D0C010100021B23BB371BA73F1E0000BB
:1009D00000000203080D0D000302000000007878FB
:1009E000FEFEFEFE78780000080008000F0F0F0FD3
:1009F000000800080000F0F0FCFCFCFCF0F0000037
:100A0000080008000F0F0F0F000800080000E0E0CA
:100A1000F8F8F8F8E0E00000080009010F0F0F0FE8
:100A2000010900080000C0C0F0F0F0F0C0C00000F4
:100A300008000B030F0F0F0F030B0008000080804E
:100A4000E0E0E0E080800000080007070F0F0F0FD4
:100A50000707000800000000C0C0C0C00000000080
:100A600008000F0F0F0F0F0F0F0F000800000000FE
:100A7000808080800000000008000E0E0F0F0F0F16
:100A80000E0E000800000000000000000000000042
:100A900008000C0C0F0F0F0F0C0C000800000000DA
:100AA0000000000000000000080008080E0E0E0EF6
:100AB000080800080000000000000000000000001E
:100AC000000008000C0C0C0C0008000000000000E6
:100AD00000000000000000000000080008080808EE
:100AE00000080000000000000000000000000000FE
:100AF0000000000008000008000000000C100000CA
:100B00007848CE0202CE48780000080008000F00A6
:100B1000000F000800080000F0909C04049C90F076
:100B20000000080008000F00000F00080008000087
:100B3000E0203808083820E00000080009010F0014
:100B4000000F010900080000C0407010107040C084
:100B5000000008000B020E00000E020B000800004F
:100B60008080E02020E080800000080007040C0066
:100B7000000C0407000800000000C04040C0000056
:100B8000000008000F0909000009090F0008000013
:100B90000000808080800000000008000E0203003A
:100BA0000003020E0008000000000000000000002A
:100BB000000008000C0407010107040C00080000F5
:100BC00000000000000000000000080008080E02FD
:100BD000020E0808000800000000000000000000ED
:100BE0000000000008000C04040C000800000000D5
:100BF00000000000000000000000000008000808DD
:100C000008080008000000000000000000000000CC
:100C100000000000000008000008000000000000C4
:100C2000000000C0E0F0F0E0C000000000000000A4
:100C3000000000010303010000000000000000802C
:100C4000E0F0F8F8F8F0E0C0000000000000010358
:100C500007070F0F070301000000C0E0F8FCFEFECD
:100C6000FFFFFFFFFEFEFCF8F003070F1F1F3F7F93
:100C70007F7F7F3F1F0F03010080D8FCFE7E3F1E59
:100C80000C9C3E7F3F9E0C03070F1F1F0F0E1E3F45
:100C90007F3F1E0D0301000C9EBF3F1E0400040E8B
:100CA0001F3F3F1E0C060F1F3F1F0E0400081C3E77
:100CB0007F3F1E0C0002070F060000000000070F18
:100CC0001F1E1C0E1E3E3C380000000010387C38F1
:100CD0001000020702000000000000000002070EE2
:100CE00004081C38100000000000000000207020E4
:100CF0000F10000000000000C02020C00000000015
:100D000000000000000000000101000000000000E1
:100D100000000000806010103020C00000000000C3
:100D2000000000010202040402010000000000C0F3
:100D3000201824040202020A040408F0000003043C
:100D400008081420202021120C02010000008098C5
:100D50002424120C00081422120C000003040809B9
:100D600006000C1221120C00010000000C121A04E3
:100D7000000000040A12120C00000609110A040007
:100D80000000081422120C000000020600000000FF
:100D9000000000060A0C00000C14180000000000FF
:100DA00000102810000000020000000000000000F9
:100DB0000000020400000810000000000000000015
:100DC000000020001F1F1F1F1F1F1F1F1F1F1F1F8F
:100DD0001F1F1F1F1008000E0A000E08000E000E35
:100DE0000A000E040A004040FFFFFFFFFFBFFFFFA5
:100DF000FFF7F7FFFF7FFFFFBF7DCF6D362FBBDF14
:100E00001F4F1FBAAF3D9B5620133E8F9B2F579FFE
:100E10003DAF7FEF6BD7BF7FBFFFFFFFFDFFFFFF42
:100E2000FFFFFFFFFFFFFFFFFFFFFFF7FFFFF7BF22
:100E30003F7F9FAF2F07BF09BC9E400905010100FE
:100E400001000C0100040800000000004000010443
:100E50000801808010024D0E2475FFDF1C955FEFA6
:100E6000FFFFFFFFFFFFFFFFFFFFF9EFBDFFBE6BBF
:100E70009732320A0B00020001000400000000005B
:100E80000000000000000000000000000000000062
:100E90000400000000020002480005213B07BB1DC2
:100EA0000F5FFEB3DDFFFFFFFFFB77FF3FE6D3C51C
:100EB0000960308200008000000000000000000097
:100EC0000000000000000000000000000000000022
:100ED000000000000000000000004050018524498F
:100EE0001E9B9DE73FA7FFFFFFFFFFFD235F86E0FF
:100EF0001915003100000000000000000000000093
:100F000000000000000000010000000000000000E0
:100F100000000000000000000004100010860040E7
:100F20002A6FF7EFDCEFF7FFEFFFF5DFFFFB1EF9AE
:100F300011C8C0C08480040000000000000004004C
:100F400000000000000000000000000000000000A1
:100F50000000900000003000201008844450B9F6D2
:100F6000BEAABFFEBFFCFFFFFFFFFFFDDFBDFFFE10
:100F7000BBFEFBEEAFAF400080A0088000004480C5
:100F8000000000040000100000000000200000A08D
:100F90000020008108A00A8000F158B0EDD9FFF6CA
:100FA000FEFFDDFFEBFBFFFFFFFFFFFFFFFFFDFF8E
:100FB000F7FDF7F7FDFEFCBFFFD97E425D88D4EB5D
:100FC0008CB4E091E3E174E184EA40C07100C13D7A
:100FD000D8E6B0ACE1FED6D9E6E7FFFFFFFFEEFFB3
:100FE000FEFFFFFFFFFFFFFFFFFFFFFFFFFFFFFF12
:100FF000FFFFFFFFFFFFFFFFDFF7EFEF7F376F3FE1
:101000007FDFBFEBEB1F137777F77FDD2BF77F3F9A
:101010002BFBBFFFBFFF17FF7FDFF3FFF7DFFFFFF4
:101020007FFFFFFFFFFFFFFFFFF7FFFFFFFF7FFFD8
:101030007733FF3B7EE173353F0E258B0B1A800221
:101040000D000601100231040004440028000104D0
:101050000201192247830D134E030B2E775B6F5F3E
:101060007DFFFF3F3DFFFFFFFF7FF7FBA7FB3D56E7
:1010700042050383080002300005800000000000E4
:101080000000000000000000000000000000000060
:1010900000000000220200201002000A0044001597
:1010A00009465695A77CCFFF5F7F373D6BA4021999
:1010B0000200010000000800000000000000000025
:1010C0000000000000000000000000000000000020
:1010D0000000000000000000000000000009000106
:1010E0000B40814109497AD2EEFBEDFEB71C411A53
:1010F000900024220000000000000000000000001A
:1011000000000000000000000100000000000000DE
:1011100000000000000000000000100002000000BD
:101120001D08C280526F2FFDF7AFFDF7CBDE71A314
:101130001E40C8D0C08020C08000200000000000F9
:10114000000000000000000000000000000000009F
:10115000000002000000000000000220004002D158
:10116000C9B1AAEDEAA1FBC7FFFFFF9FFFFFFFFB8D
:10117000FFFEFEFBE2DA403288FA8018E060008071
:101180008010008020604012D0004080D01000000D
:1011900080000A408000707CACFC5CFCE0FC72FCCF
:1011A000F9B5FF4FFFFFFEFFFFFFFFFFFFFFFBFF54
:1011B000FFFFFFEDFFFFFEFFFDD7DEFFEEFFF5FEB9
:1011C000FBFEBDD8FAFCF7D7FCEEF6F4F4F9F5F324
:1011D000FDDEFADF7FEDFDFDFEEBFFFFFFF7FBFF1E
:1011E000FFFDFFFFFFFFFFFF2020FFFFFFFFFFFFCF
:1011F000FFFFFFFFFFFFFFFFFFFFFFFFFFFFFFFFFF
:10120000FFFFFFFFFFFFFFFFFFFFFFFFFFFFFFFFEE
:10121000FFFFFFFFFFFFFFFFFFFFFFFFFFFFFFFFDE
:10122000FFFFFFFFFFFFFFFFFFFFFFFFFFFFFFFFCE
:10123000FFFFFFFFFFFFFFFFFFFFFFFFFFFFFFFFBE
:10124000FFFFFFFFFFFFFFFFFFFFFFFFFFFFFFFFAE
:10125000FFFFFFFFFFFFFFFFFFFFFFFFFFFFFFFF9E
:10126000FFFFFFFFFFFFFFFFFFFF8080FFFFFFFF8C
:10127000FFFFFEE0E0C00F1F3F3F3F3F3F3F1F0F1C
:1012800007070C1000000000F9FA000000800000C1
:101290000002060C0D0D0C06030201000000000008
:1012A000F2F40000008000000002060C0D0D0C0698
:1012B0000302010000000000E4E8000000800000DC
:1012C0000002060C0D0D0C060302010000000000D8
:1012D000C8D00000008000000002060C0D0D0C06B6
:1012E000030201000000000090A000000080000048
:1012F0000002060C0D0D0C060302010000000000A8
:1013000020400000008000000002060C0D0D0C06BD
:101310000302010000000000408000000080000087
:101320000002060C0C0C0C060302010003083E220E
:101330003E243E203A2A2E222A3E0E083E2E2A3AEB
:101340003E2A3A023A063E2A3E2E2A3E26083E0809
:101350003E003E003E2232003E083E0000002E2AA3
:101360003A003E2222003E223E003E0A36003E2A3D
:1013700022001400FFFFFFFFFFFFFFFFFFFFFFFF43
:10138000FFFFFFFF001F1F1F1F1F1F1F1F1F1F1F0C
:101390001F1F1F1F1F001110EC2EAE2EEC02EEA619
:1013A0008676C676862EEC00000F080B080F000F1D
:1013B0000A0A0A0A0A0A080F0000EC6E2EEEEC0276
:1013C000EEA68676C676862EEC00000F0B080B0F75
:1013D000000F0A0A0A0A0A0A080F0000ECAEAE2E35
:1013E000EC02EEA68676C676862EEC00000F080A82
:1013F0000A0F000F0A0A0A0A0A0A080F0000ECAED8
:10140000AE2EEC02EEA68676C676862EEC00000F97
:101410000B0A080F000F0A0A0A0A0A0A080F00003E
:10142000EC2EEE2EEC02EEA68676C676862EEC002C
:10143000000F0E0E080F000F0A0A0A0A0A0A080F08
:101440000000EC2EAEAEEC02EEA68676C676862EB8
:10145000EC00000F0A0A080F000F0A0A0A0A0A0A1B
:10146000080F0000EC2EAEAEEC02EEA68676C67635
:10147000862EEC00000F080A080F000F0A0A0A0A5D
:101480000A0A080F0000ECAEAE2EEC02EEA686763D
:10149000C676862EEC00000F0F080F0F000F0A0A09
:1014A0000A0A0A0A080F0000EC2EAE2EEC02EEA685
:1014B0008676C676862EEC00000F080A080F000F0D
:1014C0000A0A0A0A0A0A080F0000EC2EAE2EEC02E5
:1014D000EEA68676C676862EEC00000F0A0A080F66
:1014E000000F0A0A0A0A0A0A080F0000EC2EEE2E64
:1014F000AC22EEA68676C676862EEC00000F080F8C
:10150000080B080F0A0A0A0A0A0A080F000000005E
:101510000000003E5B4F5B3E3E6B4F6B3E1C3E7CD3
:101520003E1C183C7E3C181C577D571C1C5E7F5E81
:101530001C00183C1800FFE7C3E7FF001824180040
:10154000FFE7DBE7FF30483A060E262979292640D7
:101550007F050507407F05253F5A3CE73C5A7F3E03
:101560001C1C08081C1C3E7F14227F22145F5F0095
:101570005F5F06097F017F006689956A6060606031
:101580006094A2FFA29408047E040810207E20101C
:1015900008082A1C08081C2A08081E101010100C25
:1015A0001E0C1E0C30383E3830060E3E0E06000073
:1015B00000000000005F00000007000700147F1417
:1015C0007F14242A7F2A1223130864623649562086
:1015D000500008070300001C2241000041221C00AB
:1015E0002A1C7F1C2A08083E08080080703000086A
:1015F00008080808000060600020100804023E513E
:1016000049453E00427F40007249494946214149CF
:101610004D331814127F1027454545393C4A494936
:101620003141211109073649494936464949291EA0
:10163000000014000000403400000008142241148F
:1016400014141414004122140802015909063E41E1
:101650005D594E7C1211127C7F494949363E414109
:1016600041227F4141413E7F494949417F09090962
:10167000013E414151737F0808087F00417F4100CE
:101680002040413F017F081422417F404040407F7D
:10169000021C027F7F0408107F3E4141413E7F09CA
:1016A0000909063E4151215E7F091929462649490B
:1016B000493203017F01033F4040403F1F2040204B
:1016C0001F3F4038403F6314081463030478040349
:1016D0006159494D43007F414141020408102000F7
:1016E0004141417F04020102044040404040000368
:1016F00007080020545478407F2844443838444434
:101700004428384444287F385454541800087E092B
:101710000218A4A49C787F0804047800447D40004B
:101720002040403D007F1028440000417F40007C65
:10173000047804787C080404783844444438FC185D
:1017400024241818242418FC7C0804040848545441
:10175000542404043F44243C4040207C1C2040206E
:101760001C3C4030403C44281028444C9090907CD5
:101770004464544C440008364100000077000000E7
:101780004136080002010204023C2623263C1EA129
:10179000A161123A4040207A385454555921555588
:1017A0007941215454784121555478402054557939
:1017B000400C1E52721239555555593954545459CA
:1017C00039555454580000457C410002457D420083
:1017D00001457C40F0292429F0F0282528F07C548C
:1017E0005545002054547C547C0A097F49324949AC
:1017F00049323248484832324A4848303A41412119
:101800007A3A42402078009DA0A07D394444443972
:101810003D4040403D3C24FF2424487E4943662B04
:101820002FFC2F2BFF0929F620C0887E09032054A6
:101830005479410000447D413048484A32384040A4
:10184000227A007A0A0A727D0D19317D2629292F04
:1018500028262929292630484D402038080808081C
:1018600008080808382F10C8ACBA2F102834FA001E
:10187000007B000008142A142222142A1408950060
:10188000220095AA005500AAAA55AA55AA00000050
:10189000FF00101010FF00141414FF001010FF00C0
:1018A000FF1010F010F0141414FC001414F700FFD3
:1018B0000000FF00FF1414F404FC141417101F1090
:1018C000101F101F1414141F00101010F00000003F
:1018D000001F101010101F10101010F0100000004A
:1018E000FF101010101010101010FF10000000FF5B
:1018F000140000FF00FF00001F10170000FC04F49C
:1019000014141710171414F404F40000FF00F71453
:10191000141414141414F700F714141417141010DA
:101920001F101F141414F4141010F010F000001FF6
:10193000101F0000001F14000000FC140000F01035
:10194000F01010FF10FF141414FF141010101F00DB
:10195000000000F010FFFFFFFFFFF0F0F0F0F0FFDD
:10196000FFFF0000000000FFFF0F0F0F0F0F3844B4
:101970004438447C2A2A3E147E02020606027E0275
:101980007E0263554941633844443C04407E201E36
:101990002006027E020299A5E7A5991C2A492A1C65
:1019A0004C7201724C304A4D4D303048784830BC52
:1019B000625A463D3E494949007E0101017E2A2A7C
:1019C0002A2A2A44445F444440514A444040444AFD
:1019D00051400000FF0103E080FF000008086B6B2E
:1019E000083612362436060F090F060000181800B4
:1019F00000001010003040FF0101001F01011E0017
:101A0000191D1712003C3C3C3C0000000000D5F0C2
:101A10008D14A1C881CFD9F1AF20000408000606BB
:101A200000000E0E0006060600000707000006066E
:101A30000606060606000F0F00060F0F0600000F31
:101A4000000404040400FF00000202020200000C73
:101A500004040C0000000003020203000000000F59
:101A600006040C0C04060F0000020303020607071D
:101A700006060E0E06000F0F06060F0F00000E0ED4
:101A800006060E0E0000070706060707000A0A0AE8
:101A90000A05050505000F000F0F000F00040800E0
:101AA0000204000004020004080006060024087F67
:101AB000776B557F7F7F7F415F5F7F415D417F41D6
:101AC0006F417F41555D7F4175497F7F7F7F7F41BA
:101AD00063777F7F7763417F7F7F7F415F417F4176
:101AE00075717F4175717F41555D7F4175497F7F7C
:101AF0007F7F7F556B777F1010830100000000000F
:101B0000010100000000000183C18000000000000E
:101B10008080000000000080C10C1080C06CEA6A68
:101B20009A9A7A1A1A0A0A050205070000000000AC
:101B300000000080C06CEA6A9A9A7A1A1A0A0A05AA
:101B4000020507000000000000000680C06CEA6A81
:101B50009A9A7A1A1A0A0A0502050700000000007C
:101B60000600060C1000000000000000000000004D
:101B700000000000000000000000000000FF11D77E
:101B800091B585D15F01DD01FF0F080A0A0A080B34
:101B9000080A0A080FC060B0ECEEEDF1E2C40404DC
:101BA0000203060D0B0F0F0F070300000080C06C2F
:101BB000EA6A9A9A7A1A1A0A0A05020507000000C8
:101BC00000000000000000F617F7F600EC2EEEEC27
:101BD00000000005050505000B0A0B0B0000F0389E
:101BE000141BDF5FDF5CD8D00000070C08080B0B6C
:101BF0000A090C0700E010D010D050508874748887
:101C0000700001010100000000010100000000005F
:101C100000F9FA0000008000000002060C0D0D0C17
:101C20000603020100080800080C0E0F0E0C080045
:101C300008040A050A040800103070F07030100023
:101C4000102050A050201008083C7EE7C3C3E77E58
:101C50003C003C66C3C3663C0000007EC3C37E00FC
:101C6000000000007EC37E0000000000FF000000B6
:101C7000000000007EC37E000000007EC3C37E0023
:101C800000003C66C3C3663C003C083E0A0E003EB2
:101C90000A36003E2A22002E2A3A002E2A3A000056
:101CA0000006003E0A3E00060000023E02003E2200
:101CB0003E0000002E2A3A00023E02003E0A3E008C
:101CC0003E0A3600023E021F08000000000000002D
:101CD0000000000000000000000000000000000004
:101CE00000000000000000000208D4D205087F7F39
:101CF0003E1C084120FE0105F1F1F111D1B1D111D5
:101D0000F151515151515151515151515151510074
:101D100000FF00007F7F09090F06007F7F19396FE0
:101D200046007F7F4949414100266F49497B320087
:101D3000266F49497B32FF0000FFFFFFFEFFFEFFD9
:101D40000279CD95A5CD790111111101F9F90101A2
:101D50000000FF00007F7F09090F06007F7F4040E1
:101D60004040007C7E0B0B7E7C00070F78780F07CD
:101D700000000000000000FF00001F3F3F3333332E
:101D800033333E36363E363E363E36363E36363EC9
:101D9000360000FF00003E7F41417F3E007F7F0E06
:101DA0001C7F7F0000000000000000000000000019
:101DB00000000000000000003F40504040407846D6
:101DC00041415959414141415959414141414141A3
:101DD000414100007F000001017F7F0101007C7E06
:101DE0000B0B7E7C007F7F09090F06007F7F49492E
:101DF0004141000000000000008010FE7EBEBEBE1B
:101E0000BEBE7EFE0EF6060EFEFEFEFE0EF696969A
:101E10001616868E0E76860E3E8E76060E0EF6967A
:101E2000961616868E0EF6060EFEFEFEFEFEFEFED2
:101E30001EEE16161696868E1EEE161616E60E1E4A
:101E40000EF6264E9E5E2EF6060E0EF696969666BA
:101E50000E9E0EF6060EFEFEFEFE0EF6969616166A
:101E6000868ECE9616F61616868E0EF69696161652
:101E7000868EFE7EBEBEBEBEBE7EFE7F7F7E7E7E28
:101E80007E7E7F7F7067646465656163706764648C
:101E9000646461637F787364646370787F7067647F
:101EA000646464616370676464656561637F7F7F98
:101EB0007873646464656163787364646463707880
:101EC000706760607C7C70676060706760607E7E59
:101ED0007F7F706764646565616370676464646470
:101EE00061637F7F706760607F7F70676464646434
:101EF00061637F7F7E7E7E7E7E7F7F8010FEFEFE22
:101F0000FEFEFEFEFEFEFEFEFEFE7EBEBEBEBEBEB1
:101F1000BEBEBEBEBEBEBE7EFE0EF6868E8EF60671
:101F20000E0EF6060E1EEE16169696060E0EF68689
:101F30008E8EF6060EFEFEFEFE1E6E969696160619
:101F40008E1EEE16169696868E1EEE161616E60E49
:101F50001E0EF6969696660E9E0EF69696161686A9
:101F60008EFE7EBEBEBEBEBEBEBEBEBEBEBEBE7E01
:101F7000FEFEFEFEFEFEFEFEFEFEFEFEFE7F7F7FFE
:101F80007F7F7F7F7F7F7F7F7F7F7F7E7E7E7E7E66
:101F90007E7E7E7E7E7E7E7F7F7067607060676003
:101FA0007070676060787364646463707870676091
:101FB00070606760707F7F7F7F7364646464637048
:101FC000787873646465656163787364646463706E
:101FD0007870676060706760607067646464646193
:101FE000637F7F7E7E7E7E7E7E7E7E7E7E7E7E7F29
:101FF0007F7F7F7F7F7F7F7F7F7F7F7F7F8010FEE0
:10200000FEFEFEFEFEFEFEFEFEFEFEFEFEFE7EBEB0
:10201000BEBEBEBEBEBEBEBEBEBEBE7EFE1EEE16F8
:10202000169696060E1EEE969696E60E0EF6264E20
:102030009E5E2EF6060E0EF696961616868EFEFE00
:10204000FE1EEE161616E60E1E0E76860E3E8E76D8
:10205000060E0EF696961616868E0EF696969666D0
:102060000E9EFE7EBEBEBEBEBEBEBEBEBEBEBEBE60
:102070007EFEFEFEFEFEFEFEFEFEFEFEFEFEFE7F7F
:102080007F7F7F7F7F7F7F7F7F7F7F7F7F7F7F7E61
:102090007E7E7E7E7E7E7E7E7E7E7E7F7F78736489
:1020A00064646370787067607060676070676060B8
:1020B0007C7C7067606070676464646461637F7F68
:1020C0007F78736464646370787F7873646463702A
:1020D000787F706764646464616370676060706770
:1020E00060607F7F7E7E7E7E7E7E7E7E7E7E7E7E4A
:1020F0007F7F7F7F7F7F7F7F7F7F7F7F7F7F7F0867
:1021000010FE9E2EF6060EFEFE7F7F706760607FDB
:102110007FCED6161696660E9E71666565646461FE
:1021200063CE96169696660E9E73656464646370BD
:10213000790EF6868E8EF6060E7E7C7C7C7067604D
:102140006006F69696961646CE7264646464637072
:10215000781EEE969696464EFE78736464646370BD
:1021600078CED65696563606CE7F716661607C7FF5
:102170007F1E6E969696660E9E7873646464637096
:10218000781E6E969696E60E1E7F72646464637087
:10219000788010FEFEFEFEFEFE7EBEBEBEBEBEBE51
:1021A000BEBEBEBEBEBE7EFE1EEE16161696868E47
:1021B0001EEE161616E60E1E0EF6060EFEFEFEFEAF
:1021C0000EF6060EFEFEFEFE0EF696961616868E8F
:1021D0001EEE16161696868ECE9616F61616868E57
:1021E0000EF696961616868E0EF6161616E60E1E27
:1021F000FEFEFEFEFE1E6E969696660E9EFE7EBE4F
:10220000BEBEBEBEBEBEBEBEBEBEBE7EFEFEFEFE2E
:10221000FEFEFE7F7F7F7F7F7F7F7E7E7E7E7E7E57
:102220007E7E7E7E7E7E7F7F78736464646561637C
:10223000787364646463707870676464656561630F
:102240007067646465656163706764646464616336
:1022500078736464646561637F7F706760607F7FAB
:1022600070676464646461637067646464637078F5
:102270007F7F7F7F7F78736464646370787F7F7E05
:102280007E7E7E7E7E7E7E7E7E7E7E7F7F7F7F7F69
:102290007F7F7F5A083E2A22003E023E003E0A3ED1
:1022A000003E2A36003E2020003E2A220000003E4A
:1022B000043E003E0A3E003E0A0E002E2A3A00145A
:1022C000000000000000000000003E2A22003E0244
:1022D0003E003E0A3E003E2A36003E2020003E2AB6
:1022E00022003E221C000000081C3E003E1C083E4E
:1022F0002A22003E023E003E0A3E003E2A36003EB2
:102300002020003E2A220000003E043E003E0A3EFD
:10231000003E0A0E002E2A3A0014000000000000C1
:1023200000003E221C003E002E2A3A003E0A3E00DB
:102330003E2A36003E2020003E2A22003E221C007B
:102340000000081C3E003E1C083E2A22003E023EC1
:10235000003E0A3E003E2A36003E2020003E2A2251
:102360000000003E043E003E0A3E003E0A0E002EE3
:102370002A3A0014000000000000000000000000E5
:10238000000000000000000000000000000000004D
:10239000000000000000000000000000000000003D
:1023A0000000005A083E2A22003E023E003E2A2239
:1023B000003E043E000E300E0000003E003E023E95
:1023C000003E221C003E003E2222003E0A3E000249
:1023D0003E02003E223E003E0A36002E2A3A0014FB
:1023E0000000000000002E2A3A003E083E003E2277
:1023F0003E003E103E000000081C3E003E1C083E11
:102400002A22003E023E003E2A22003E043E000EEA
:10241000300E0000003E003E023E003E221C003E08
:10242000003E2222003E0A3E00023E02003E223EC4
:10243000003E0A36002E2A3A001400000000000078
:10244000003E083E003E003E221C003E2A220000C4
:102450000000081C3E003E1C083E2A22003E023EB0
:10246000003E2A22003E043E000E300E0000003ED8
:10247000003E023E003E221C003E003E2222003E64
:102480000A3E00023E02003E223E003E0A36002E78
:102490002A3A0014000000000000000000000000C4
:1024A000000000000000000000000000000000002C
:1024B000000000FFFFFFFFFFFFFFFFFFFFFFFFFF29
:1024C000FFFFFFFFFFFFFFFFFFFFFFFFFFFFFFFF1C
:1024D000FFFFFFFFFFFFFFFFFFFFFFFFFFFFFFFF0C
:1024E000FFFFFFFFFFFFFFFFFFFFFFFFFFFFFFFFFC
:1024F000FFFFFFFFFFFFFFFFFFFFFFFFFFFFFFFFEC
:10250000FFFFFFFFFFFFFFFFFFFFFFFFFFFFFFFFDB
:10251000FFFFFFFFFFFFFFFFFFFFFFFFFFFFFFFFCB
:10252000FFFFFFFFFFFFFFFFFFFFFFFFFFFFFFFFBB
:10253000FFFFFFFFFFFFFFFFFFFFFFFFFFFFFFFFAB
:10254000FFFFFFFFFFFFFFFFFFFFFFFFFFFFFFFF9B
:10255000FFFFFFFFFFFFFFFFFFFFFFFFFFFFFFFF8B
:10256000FFFFFFFFFFFFFFFFFFFFFFFFFFFFFFFF7B
:10257000FFFFFFFFFFFFFFFFFFFFFFFFFFFFFFFF6B
:10258000FFFFFFFFFFFFFFFFFFFFFFFFFFFFFFFF5B
:10259000FFFFFFFFFFFFFFFFFFFFFFFFFFFFFFFF4B
:1025A000FFFFFFFFFFFFFFFFFFFFFFFFFFFFFFFF3B
:1025B000FFFFFF0F0F0F0F0F0F0F0F0F0F0F0F0F5B
:1025C0000F0F0F0F0F0F0F0F0F0F0F0F0F0F0F0F1B
:1025D0000F0F0F0F0F0F0F0F0F0F0F0F0F0F0F0F0B
:1025E0000F0F0F0F0F0F0F0F0F0F0F0F0F0F0F0FFB
:1025F0000F0F0F0F0F0F0F0F0F0F0F0F0F0F0F0FEB
:102600000F0F0F0F0F0F0F0F0F0F0F0F0F0F0F0FDA
:102610000F0F0F0F0F0F0F0F0F0F0F0F0F0F0F0FCA
:102620000F0F0F0F0F0F0F0F0F0F0F0F0F0F0F0FBA
:102630000F0F0F8018FAFAFAFAFAFAFAFAFAFAFA17
:10264000FAFAFAFAFAFAFAFAFAFA3ADA9A3A7A7AEA
:10265000BADA1A3A7ABA5A5A5A9A3A7A3A5A5A5ABA
:102660005ADA1A3A3ADA5A5A5A5A1A3AFAFAFAFA2A
:102670007A7A7A7AFAFAFA7ABA5A5A1A3AFAFAFA5A
:102680007ABA5A5A5A5A1A3A7ABA5A5A5A9A3A7ACA
:102690003ADA1A3AFAFAFAFA3ADA5A5A5A9A3A7A7A
:1026A000FAFAFAFAFAFAFAFAFAFAFAFAFAFAFAFA8A
:1026B000FAFAFAFAFAFFFFFFFFFFFFFDFAFAFAFA59
:1026C000FAFAFAFAFAFAFAFAFDFFC09F8081F2F1FB
:1026D000C09F8080C09F82C2829F8080C79B95924E
:1026E0009190848EC09F92929090868EFFFFE1CE53
:1026F0009191918EC0E1FCC19F8181F8F8FFFFFFAD
:10270000E0CF9090928EC0E0E0CF9090908FC0E0AC
:10271000C09F90909797878FC09F9090908FC0E0B8
:10272000FFFDFAFAFAFAFAFAFAFAFAFAFAFAFDFFF9
:10273000FFFFFFFFFF050505050505050505050567
:102740000505050505050505050505050505050539
:102750000505050505050505050505050505050529
:102760000505050505050505050505050505050519
:102770000505050505050505050505050505050509
:1027800005050505050505050505050505050505F9
:1027900005050505050505050505050505050505E9
:1027A00005050505050505050505050505050505D9
:1027B0000505050505080B000202020000090400DA
:1027C000000102020000052400100105240101019E
:1027D00004240206052406000107058103100040B9
:1027E00009040100020A000000070502024000007F
:1027F000070583024000000403090412010002EFF0
:10280000020140412336800001010203014172644C
:1028100075696E6F204C4C430041726475626F792C
:102820000000F52D11241FBECFEFDAE0DEBFCDBFD3
:1028300011E0A0E0B1E0E2E2F2E702C005900D9203
:10284000A833B107D9F729E0A8E3B1E001C01D9290
:10285000A634B207E1F714E1C2E1D4E104C0219744
:10286000FE010E940939C131D107C9F70E941D2E0E
:102870000C940F390C9400008F5FE82FF0E0E851C2
:10288000FA4F8A3020F4918191938F5FFACF1092A2
:10289000F2058091E80581508093E8050895982F0E
:1028A000E9EEF5E080E02191291721F08F5F8A3071
:1028B000D1F78FEF0895E62FF0E08130C1F487E182
:1028C00090E0E80FF91FF595E79587E1489FE00D47
:1028D000F11D1124E950FA4F808160FD0BC08F700B
:1028E00090E1299F90011124822B8083089590E02C
:1028F00080E0E7CF807F282B208308956731D8F4CC
:102900004731C8F4E62FF0E0813091F487E190E0A0
:10291000E80FF91FF595E79587E1489FE00DF11D58
:102920001124E950FA4F808160FF82958F700895DD
:1029300090E080E0EDCF81E008956731F8F4473111
:10294000E8F4E62FF0E08130B1F487E190E0E80FA1
:10295000F91FF595E79587E1489FE00DF11D1124DA
:10296000E950FA4F908160FF92959F7081E091301D
:1029700031F080E0089590E080E0E9CF81E00895B3
:102980006731F8F44731E8F4E62FF0E08130D9F40C
:1029900087E190E0E80FF91FF595E79587E1489FFB
:1029A000E00DF11D1124E950FA4F8081982F60FD50
:1029B0000DC092959F70892F8D7F69F081E09430D2
:1029C00059F080E0089590E080E0E4CF9D7019F028
:1029D000982F9F70F3CF81E00895FC0180918E01C4
:1029E000882311F13FB7F89482E08093E9002091A9
:1029F000F200822F90E01816190614F481E090E09E
:102A0000882339F0289844E640938D014091F100E5
:102A10004083222339F02091F200211103C02BE6DC
:102A20002093E8003FBF08958FEF9FEF08952FB7E1
:102A3000F89483E08093E9009091E800892F8072F8
:102A400095FF04C09091F20080E4891B2FBF089588
:102A50008091850181110DC082E08093810184E025
:102A600080938201109284011092830181E080930F
:102A7000850181E891E00895CF93DF931F92CDB750
:102A8000DEB76983DC01ED91FC910280F381E02DDA
:102A900041E050E0BE016F5F7F4F09950F90DF91DD
:102AA000CF91089583E08093E9008091F20088231C
:102AB00019F08AE38093E80008950E94171590E0CA
:102AC0000895CF93DF931F92CDB7DEB7FC018485C5
:102AD000958597FD08C02FEF3FEF358724870F902E
:102AE000DF91CF910895CE0101960E94ED140197D8
:102AF00019F4898190E0F3CF8FEF9FEFF0CF0F9320
:102B00001F93CF93DF931F92CDB7DEB78C01FC01EB
:102B10008485958597FF0BC0CE0101960E94ED1428
:102B2000019771F4898190E0F80195878487F80115
:102B3000848595850F90DF91CF911F910F91089516
:102B40008FEF9FEFF1CFFC018485958597FD0BC03A
:102B50009FB7F89482E08093E9008091F2009FBFD4
:102B600090E0019608959FB7F89482E08093E90081
:102B70008091F2009FBF90E0089540917B015091B9
:102B80007C012091790130917A0142175307B4F406
:102B90009091E8009570E1F39091E80092FD19C0E2
:102BA0008093F10080917B0190917C0101968F735D
:102BB0009927892B19F48EEF8093E80080917B018F
:102BC00090917C01019690937C0180937B0181E040
:102BD000089580E00895EF92FF920F931F93CF9393
:102BE000DF93F82E192FE62E042F81E0860F880F31
:102BF0000E94BD1583E00E94BD15CF2DD12FEC0E94
:102C0000FD2EF11CCE15DF05B9F007FF13C0FE0144
:102C100084910E94BD15182F80E00E94BD1581236C
:102C200021968111EFCFDF91CF911F910F91FF90EE
:102C3000EF9008958881EDCF81E0F5CFDF92EF929C
:102C4000FF920F931F93CF93DF93D82E8A01EB014E
:102C50007B01E40EF51ECE15DF0559F0D7FE12C03C
:102C6000FE0184910E94BD1521968111F4CF0FEFD2
:102C70001FEFC801DF91CF911F910F91FF90EF904F
:102C8000DF9008958881EECF0F931F93CF93DF934A
:102C90001F92CDB7DEB782E0898342E450E065EB56
:102CA00077E280E80E941E160E942815DC01129629
:102CB0000D911C910115110589F0D801ED91FC9140
:102CC0000280F381E02DBE016F5F7F4FC80109953F
:102CD00097FD04C0F80100851185ECCF89810F9024
:102CE000DF91CF911F910F910895615030F02091A5
:102CF000F100FC0120830196F8CF289884E68093A8
:102D00008D010895FC010E941D17319728F068512C
:102D10007C4F8F4F9F4FF9CFAB01FC010E941D17D5
:102D2000641775078E079F07C8F3089585E090E044
:102D30000C9482168F929F92AF92BF92CF92DF92A5
:102D4000EF92FF920F931F93CF93DF936C017B0160
:102D50008A0180911201882309F45AC080918E0162
:102D6000882309F455C08091800180FF05C08091BF
:102D7000E00082608093E000E801B12C8AEFA82E89
:102D800093E0892E2AE3922E209711F4BB20C9F1FB
:102D90000E941715811108C0AA94AA20C9F181E0E8
:102DA00090E00E948216F0CF8C171D0611F00CF0F7
:102DB0008C2F9FB7F8948092E9002091E80025FDC0
:102DC00002C09FBFE1CF282F30E0C21BD30BF70119
:102DD000815020F041914093F100FACFE20EF31EB2
:102DE000BB2021F09092E800B12CEBCF8091E8005D
:102DF00085FDE7CF9092E800BB24B394209709F3B8
:102E0000F3CF5D9884E680937F01101611063CF0A5
:102E100081E090E0F6019383828310E000E0C80136
:102E2000DF91CF911F910F91FF90EF90DF90CF90A6
:102E3000BF90AF909F908F900895A5E7B1E02FB716
:102E4000F8947D918D919C9166B52FBFA89B05C08C
:102E50006F3F18F47F5F8F4F9F4F22E0660F771F01
:102E6000881F991F2A95D1F70895AF92BF92CF92EC
:102E7000DF92EF92FF920F931F93CF93DF936C013A
:102E80007B018B01040F151FEB015E01AE18BF081B
:102E9000C017D10759F06991D601ED91FC910190CD
:102EA000F081E02DC6010995892B79F7C501DF91E5
:102EB000CF911F910F91FF90EF90DF90CF90BF9037
:102EC000AF9008956F927F928F929F92AF92BF9230
:102ED000CF92DF92EF92FF920F931F93CF93DF93E6
:102EE0004C01CB013A017C2DFA0164913196549149
:102EF000F2E06F0E711CC62FD0E0211102C0EE204F
:102F000009F1E1E0F0E0352F377011F4F0E0E0E096
:102F1000A52FA695A695A695AE0FBF2FB11DAC9F68
:102F2000F001AD9FF00DBC9FF00D1124733009F03E
:102F30008BC0EE0FFF1F2E9FD0012F9FB00D1124CD
:102F40006A0E7B1ED401AC0FBD1F1A161B060CF0B7
:102F50006CC020E8821691040CF067C09C01250F1C
:102F6000311D121613060CF060C0803491050CF070
:102F70005CC06114710409F458C0382F3770FC012B
:102F800097FD379623E0F595E7952A95E1F72E2FE3
:102F900097FF04C0332311F02FEF2E0FEE27FF27EA
:102FA000E819F90997FC02C0F0E0E0E090E8981910
:102FB000A038B1050CF4962F9E1BA22F022E000CF8
:102FC000BB0B4A2F40952F3F0CF040E0DD24D394FB
:102FD000852F877009F4D12C569556955695D50EA8
:102FE000AD0DB11D19971CF058E0D52ED21AD41A88
:102FF000240F50E82503D0011124A80DB91DAE0FF0
:10300000BF1F649FE00DF11D11246E0E7F1EE32E85
:10301000032E000CFF08733009F423C108F571304A
:1030200009F4D6C0723009F484C0DF91CF911F91AA
:103030000F91FF90EF90DF90CF90BF90AF909F9057
:103040008F907F906F9008950115110509F473CF4B
:10305000EE9ED001EF9EB00D11240A0F1B1F6BCF07
:103060007A3FB1F10D2D020F7B3FF9F62017E9F2FF
:10307000BD016F567E4FD12CC12CC91608F0A2C0DD
:10308000F301EC0DFD1DE491F0E0AF010E2C02C048
:10309000440F551F0A94E2F727FD06C0FB0180810B
:1030A000142F109581238083332361F0273054F44B
:1030B0005B01F0E8AF0EB11C452F4095F501808112
:1030C00084238083FFEFCF1ADF0A6F5F7F4FD5CF56
:1030D0000D2D020F201709F4A8CFBD016F567E4FAA
:1030E000D12CC12CC91608F067C0F301EC0DFD1DF1
:1030F000E491F0E0AF010E2C02C0440F551F0A947A
:10310000E2F727FD04C0FB018081842B80833323F9
:1031100051F0273044F45B01F0E8AF0EB11CF5012B
:103120008081852B8083FFEFCF1ADF0A6F5F7F4F8F
:10313000D9CF6FEF70E0032E02C0660F771F0A949D
:10314000E2F760957095972E8D2C820E281509F464
:103150006CCF8D010F561E4FD12CC12CC91630F5E6
:10316000F301EC0DFD1DE491F0E0AF010E2C02C067
:10317000440F551F0A94E2F727FD05C0F80180812E
:103180008623842B8083332359F027304CF4580155
:10319000F0E8AF0EB11CF50180818921852B808379
:1031A000FFEFCF1ADF0A0F5F1F4FD8CF2F5F6C0ED4
:1031B0007D1EA058BF4FCACF2F5F6C0E7D1EA0583A
:1031C000BF4F88CF2F5F6C0E7D1EA058BF4F4ECFD4
:1031D0000E0F1F1F8D2D820F281709F426CFBD015A
:1031E0006F567E4FD12CC12CC91698F5F801EC0D05
:1031F000FD1DA490B12C0E2C02C0AA0CBB1C0A947D
:10320000E2F7A094B094F301EC0DFD1D8490912C95
:103210000E2C02C0880C991C0A94E2F727FD08C006
:10322000FB014081E42FEA214E2F4829FB01408316
:10323000332349F027303CF4FB01E058FF4FA080D6
:10324000BA20B928B082FFEFCF1ADF0A6F5F7F4F35
:10325000CBCF2F5F6C0E7D1E0C0F1D1FA058BF4FD4
:10326000BBCFE92EF12CE60DF71DAF56BE4F60E83F
:1032700070E06E197F09CE19DF09AE01440F551FAA
:10328000C1E0D0E07E01032E01C0EE0C0A94EAF703
:10329000192F0D2D892E932ECF93DF93ED01EF96ED
:1032A000EF962296A590C590992059F0AE9C5001BA
:1032B000CE9C600127302CF4F880D094FD20FB28B0
:1032C000F99222233AF0FC90C094FC20FA28FD9257
:1032D0000C946B1911961A9529F70A9551F0182D2F
:1032E00023951124E40FF11DA60FB11DC60FD11DAA
:1032F000D9CFDF91CF91112498CECF92EF920F9337
:103300001F933AEFC32EE12C10E000E00E946217F9
:103310001F910F91EF90CF900895CF92EF920F935E
:103320001F9332E0C32EE12C10E000E00E946217F0
:103330001F910F91EF90CF9008950F931F93CF930C
:10334000DF93809164008E7F8093640080917A0087
:10335000806480937A0080917A0086FDFCCFC091D2
:103360007800D09179000E941D17AB01BC018091BB
:103370006400816080936400CE01B0E0A0E0DC01D5
:10338000992788278C019D01040F151F261F371FC1
:10339000C901B801DF91CF911F910F9108958FB1AD
:1033A0008095807F669B88601C9B846008955C98F4
:1033B0008EBD00000DB407FEFDCF5C9A089590917C
:1033C0006501982329F490916601982381E009F41E
:1033D00080E00895CF93C82F0E94CF19982F9C2387
:1033E00081E09C1380E0CF91089580389105B8F476
:1033F00060347105A0F490E121E061FD24E060FDFE
:10340000220F62FD2295687F969FD0011124A80F9C
:10341000AF56BE4F0C90022A40FF02260C92089530
:103420008F929F92AF92BF92CF92DF92EF92FF92D4
:103430000F931F93CF93DF936D3089F0C09063019A
:10344000D09064016A30D1F410926201109261014F
:1034500088E0C80ED11CD0926401C092630181E063
:1034600090E0DF91CF911F910F91FF90EF90DF904F
:10347000CF90BF90AF909F908F9008950091610181
:1034800010916201E5E06E9FE0011124C25FDA4E07
:103490004801F12CF5E0E12CFF1629F0CE01019650
:1034A000FE01E490EC01B12CA12C4E2D4170B6012F
:1034B0006A0D7B1DC4010E94F519E694FFEFAF1A57
:1034C000BF0A88E0A816B10481F7F394EFEF8E1AD3
:1034D0009E0AF6E0FF12DECF0A5F1F4F10936201D3
:1034E00000936101BCCF4F925F926F927F928F9257
:1034F0009F92AF92BF92CF92DF92EF92FF920F9383
:103500001F93CF93DF93C62FD0E02E0191E0491A8D
:103510005108682E880F770882E1882E912C63016C
:1035200081E1C80ED11C5E019DE0A90EB11C76019F
:10353000E818F90881E0881A910881F0820157FEA5
:1035400002C010E000E00A151B058CF740E0B8014E
:10355000C7010E94F5190F5F1F4FF5CF80914409F5
:103560002AE0281BCC24C394E12C04E713E146E9AC
:1035700053E1BE01C3010E946217DF91CF911F91F9
:103580000F91FF90EF90DF90CF90BF90AF909F9002
:103590008F907F906F905F904F9008952091E105FC
:1035A0003091E2052A5331093093470120934601B7
:1035B0008091E3059091E4054A97909349018093A7
:1035C000480137FF25C0109247011092460197FF2E
:1035D00011C01092490110924801809146019091CA
:1035E00047018539910534F084E990E090934701D3
:1035F000809346018091480190914901853D910554
:1036000034F084ED90E0909349018093480108954F
:1036100097FDDFCFE2CFCF93DF93EC0120E04CE4C6
:1036200053E160E370E086E290E00E947D19CE01F4
:1036300064E670E00E94E138262F4CE253E160E33B
:1036400070E08FE490E00E947D192AE030E0CE0126
:10365000B9010E94E138C82FCB01B9010E94E138BD
:10366000282F4CE253E160E370E083E590E00E9494
:103670007D192C2F4CE253E160E370E087E590E088
:10368000DF91CF910C947D192091E805211105C09F
:103690001092030110920401089580910301811199
:1036A00004C090910401992301F130E0482F50E0CB
:1036B0004F5F5F4F2417350721F48150809303013A
:1036C000089590910401992321F091509093040161
:1036D000F4CF8111F2CF215031098FEF79F32AF025
:1036E0008FEF80930301809304010895FC0185818D
:1036F00081110DC0818192811816190634F481E080
:1037000023813481121613060CF080E0089581E0C5
:1037100008952F923F924F925F926F927F928F9275
:103720009F92AF92BF92CF92DF92EF92FF920F9350
:103730001F93CF93DF93982EC090E105D090E205C0
:1037400056018FEFA81AB80AC091E305D091E4059D
:1037500008E018E058E5452E58E0552E6CE0862E1E
:103760003601EBE06E0E711C7E01FCE0EF0EF11CE9
:1037700078E0372EF8018081891509F416C1085FB9
:103780001F4F40165106B1F708E518E078013CE0FC
:10379000232E2601FBE04F0E511C3E018CE0680EEB
:1037A000711C4BE0342E88248394F70180818911A9
:1037B00067C0C7010E94761B882309F461C0F70126
:1037C00021813281B9016F5F7F4F83819481F9013B
:1037D0003B96AE16BF0604F564157505ECF4AC0116
:1037E000445F5F4FC417D507BCF486159705A4F452
:1037F0004091F305411110C0D0924001C0923F01A9
:10380000D0934201C093410130924301109245018F
:10381000109244018092F30540915A0150915B014E
:10382000461757076CF14E175F0754F540915C013E
:1038300050915D01481759071CF1BC01645F7F4F2F
:1038400046175707ECF43093400120933F019093C3
:103850004201809341012092430110924501109250
:103860004401F701128211821482138210925B01CB
:1038700010925A0110925D0110925C0110925E014B
:10388000FFE0EF0EF11C8CE0E81689E0F80609F085
:103890008CCF9CE0E92E99E0F92E2601FBE04F0E3B
:1038A000511C3E018CE0680E711C23E0822EF70152
:1038B0008081891119C0C7010E94761B8823A1F05D
:1038C000F70181819281AC014F5F5F4F2381348189
:1038D0006581643009F4AAC008F0A3C0623009F41D
:1038E000A5C0633009F4C9C0F8E0EF0EF11C84E410
:1038F000E81689E0F806D9F681E591E00E94761B8A
:10390000882309F43FC0809156018930D9F5609031
:103910005201709053012301EFEF4E1A5E0AE090BE
:103920005401F0905501FDE06F0E711CA614B70410
:103930000CF0CFC0C6010B96481659060CF0C9C052
:10394000C7010C96C817D9070CF0C3C0CE010C965E
:10395000E816F9060CF0BDC08091F3058111B9C0DD
:10396000D0924001C0923F01D0934201C0934101E7
:103970008BE080934301109245011092440181E055
:103980008093F305DF91CF911F910F91FF90EF90FE
:10399000DF90CF90BF90AF909F908F907F906F906F
:1039A0005F904F903F902F90089521813281829EA9
:1039B000C001839E900D11249C01245F3F4FA216ED
:1039C000B3060CF0DCCE861597050CF0D8CE23811B
:1039D0003481829EC001839E900D11249C01245F3E
:1039E0003F4FC217D3070CF0CACE8E159F050CF0BF
:1039F000C6CEC8010E94761B882309F4C0CEF80108
:103A00001282118214821382809144098150809322
:103A10004409811103C030926E01B1CE80926801D9
:103A2000AECE7AEF760F723008F05ECF0B96A81606
:103A3000B9060CF059CF441555050CF055CFC90106
:103A40000C96C817D9070CF04FCF261537050CF088
:103A50004BCF8091E8058A3009F446CFE82FF0E09B
:103A6000EF51FA4F60878F5F8093E805F70112826C
:103A7000118214821382158237CF0B96A816B906CD
:103A80000CF032CF441555050CF02ECFC9010C9621
:103A9000C817D9070CF028CF261537050CF024CF0E
:103AA0008091E8058A3009F41FCFE82FF0E0EF514C
:103AB000FA4F80868F5F8093E805F70112821182AA
:103AC0001482138215828091F5058E5F8093F5052F
:103AD0000BCFE7012C968CE0D82EF801808189115C
:103AE0002EC0C8010E94761B882349F1F80121816C
:103AF0003281C9010B96481659060CF50A978615AE
:103B00009705ECF483819481AC01445F5F4FE41628
:103B1000F506ACF48C179D0794F430934001209384
:103B20003F019093420180934101D0924301109252
:103B30004501109244011282118214821382015FA6
:103B40001F4FF9E00C301F0741F61CCF2F923F9218
:103B50004F925F926F927F928F929F92AF92BF929D
:103B6000CF92DF92EF92FF920F931F93CF93DF9349
:103B700000D000D01F92CDB7DEB770906901809061
:103B80004601909047012CE030E0C401B9010E9449
:103B9000F538C62EA0904801B0904901C501B90181
:103BA0000E94F5386D8355245A94560E662463940A
:103BB000660E695F69835CE0252E2C0D2A833D81AA
:103BC000329D70011124EA18FB081C2D4D816FEF06
:103BD000610F872D0E949D14482E33243394310E9B
:103BE0004D81632D872D0E949D14D82E452D612F68
:103BF000872D0E949D14082F462D612F872D0E942E
:103C00009D148B83173108F086C06D81673108F0F1
:103C100082C0111104C0611109C02CE034C01631FA
:103C200099F47D81711107C02DE02DC08D81863101
:103C300009F52EE028C09D812FE0963121F122E187
:103C4000411021C02AE01FC0002331F0AD81A63110
:103C500009F0E5C423E117C0BD81B63109F4D0C233
:103C6000B11106C0EB8121E1E1110DC029E00BC0CB
:103C70001111D9C420E1D11006C028E004C02B8165
:103C80002111C0C224E1129DC00111244CEA50E070
:103C9000B701881999090E947D193DC0002331F0B0
:103CA0003B8127E13111EFCF2BE1EDCF6B8122E09A
:103CB000662349F329E1E7CFDD2071F0002331F0DD
:103CC0007B8126E17111DFCF2AE1DDCF8B8128E1F5
:103CD0008111D9CF24E0D7CF2B810023A1F29B8182
:103CE00026E09111D0CF23E0CECF4D81612F872DDB
:103CF0000E947E14823009F07CC2442009F462C222
:103D0000DD2009F45AC2002309F450C2AB812CE132
:103D1000AA2309F4B8CF132D3A81331257CF6D81FE
:103D20006F5F6D83539463947981671348CF88E004
:103D300098E09C838B831CE0AB81BC818C917812D2
:103D40001EC0CD010E94761B8823C9F0EB81FC8147
:103D500083819481189FB001199F700D11246A19F5
:103D60007B0921813281129FC001139F900D112484
:103D700020E04EE354E0881999090E947D192B81B7
:103D80003C81285F3F4F3C832B8328553840A1F668
:103D90008CE099E09C838B8306E010E085E0282E80
:103DA000312C9CE0492E512C29E0622E33E0E32E89
:103DB000F12C44E0C42ED12C8B819C810E94761B77
:103DC000882391F0AB81BC818C9178120DC015963F
:103DD0008C91843009F442C208F018C2823009F490
:103DE0004CC2833009F42AC22B813C81285F3F4FAB
:103DF0003C832B8364E479E062177307E9F688E576
:103E000098E09C838B83B8E02B2E312C8B819C8196
:103E10000E94761B8823D1F1AB81BC818C917812F2
:103E200035C011968D919C911297FC01E819F90902
:103E30009F01245F3F4F2C38310508F0BFC2139615
:103E40002D913C9129014A185B08A201455F5F4F03
:103E50004B34510508F0B2C2820F931FB1010E948A
:103E6000F53821E004970CF020E0AB81BC811E9670
:103E70008C91880F280FCC24C394E22E08EB15E018
:103E800048E756E0B201CF010E9462176B817C8146
:103E9000615F7F4F7C836B838CE099E08617970787
:103EA00009F0B4CF8091F305811140C02091E7055E
:103EB0004091E1055091E2058091E3059091E40580
:103EC000FC01EA19FB09FC83EB83FA01E819F90903
:103ED0003091F405332309F4E6C2CC24C394E22ED6
:103EE00008E517E048ED57E06B817C81CF01029730
:103EF0000E94621780910101811118C0ABEFCA2E98
:103F0000E12C10E000E020E04AE357E070E060E0E0
:103F100090E080E00E9462172091F50549E15BE1A5
:103F200070E060E081E090E00E947D198EE391E016
:103F30000E94761B8823E9F12091440130914501CC
:103F4000263031050CF4CAC2265031093595279523
:103F500060914101709142016A197B0980913F0192
:103F600090914001CC24C394E22E0CED19E04CEF6B
:103F70005AE0881999090E94621780914401909132
:103F80004501019690934501809344014E9789F431
:103F90001092400110923F01109242011092410193
:103FA000809143018B3019F487E080936E01109269
:103FB000430181E591E00E94761B8823C1F12091A5
:103FC00057013091580137FF02C02F5F3F4F3595A1
:103FD00027953195219531092A5F6091540170919F
:103FE00055016A197B098091520190915301CC24AB
:103FF000C394E22E0EE11CE040EF5CE088199909C1
:104000000E946217809157019091580101979093F7
:1040100058018093570197FF0AC0109253011092E4
:10402000520110925501109254011092560189E5E7
:1040300091E00E94761B882309F45BC080915E01A9
:104040008D3009F063C260915C0170915D016A1965
:104050007B0980915A0190915B0141E0881999098F
:104060000E94F51940915F015091600180915A01C1
:1040700090915B014130510509F43FC220915C01F0
:1040800030915D01423051050CF02AC224503109B3
:10409000452B09F436C280915C0190915D012CE0C2
:1040A00030E0B9010E94F538462F80915A01909175
:1040B0005B01B9010E94F538872D0E94C01481115F
:1040C0000AC010925B0110925A0110925D01109289
:1040D0005C0110925E018091F50581110AC084E0B7
:1040E0000E944F148F3F29F00E943C1482E080937D
:1040F000F50580916701882309F460C220E23FEF53
:104100003C832B8379EFF72E50E2652E77247A9447
:1041100069EFD62ED1102CC231E03F1508F42EC223
:10412000D39490E2690E711CA8E0DA12F3CFF394F5
:10413000EB81FC81B096FC83EB83FA12E5CF2091F2
:104140008F01309190013695279521706091E3059C
:104150007091E4056A197B096C5171098091E10540
:104160009091E205881999093BEFC32EE12C10E0EC
:1041700000E046EE5DE080970E9462170F900F907E
:104180000F900F900F90DF91CF911F910F91FF90A3
:10419000EF90DF90CF90BF90AF909F908F907F90E7
:1041A0006F905F904F903F902F900895BB8121E2D8
:1041B000BB2309F468CD2DE166CD002309F4ABCD16
:1041C00022E261CDDD2071F0002331F0EB81EE239E
:1041D00009F4A1CD2FE157CDFB81FF2309F49BCD3D
:1041E00023E251CD002309F496CD2B812111F8CF84
:1041F00092CD833049F025E2843009F08CCD43CD57
:104200002BE041CD27E03FCD24E23DCD873009F4BE
:1042100040C0883009F449C0863009F0E5CDAB8153
:10422000BC8113966D917C9114976A197B09119644
:104230008D919C9126E043E65BE10BC0EB81FC8114
:10424000638174816A197B098181928120E04CE845
:1042500055E0881999090E947D19C6CDAB81BC81B2
:1042600013966D917C9114976A197B0911968D9123
:104270009C9120E042E755E0ECCFEB81FC8163812B
:1042800074816A197B098181928128E048E954E0B0
:10429000E0CFEB81FC81638174816A197B098181A4
:1042A000928120E042E852E1D4CFAB81BC811696E6
:1042B0008D919C91B8010E94F538262F693008F045
:1042C00028E0EB81FC81638174816A197B0981811B
:1042D000928148E954E0881999090E947D198091DA
:1042E0008F0190919001B1010E94E1380297B0F5E1
:1042F000AB81BC8116962D913C91C901B8010E94F9
:10430000F5387727FB01E557FB4FB491B983FB01E3
:10431000E258FB4FE491C901B7010E94F538CB0187
:10432000B6010E94F538282FAB81BC8113966D91A0
:104330007C9114976A197B09635071096E0F711D86
:104340001196ED91FC91E819F909379648E554E08A
:10435000CF013981831B91090E947D19AB81BC81FA
:1043600016968D919C911797019717969C938E9313
:10437000169788309105C1F411968D919C911297F2
:104380000397909353018093520113968D919C91C2
:104390000197909355018093540150925801409297
:1043A00057016092560120CD892B09F01DCDEB817C
:1043B000FC81128211821482138216CD80916C01CD
:1043C000811164CD80916E01843009F05FCD8091C0
:1043D0008F01909190018F709927089708F056CD22
:1043E000AB81BC8113966D917C916A197B09CF01D9
:1043F000805C9F4F21E08130914038F4CB01805C9C
:104400009F4F813C910508F420E0E43F3FEFF30724
:10441000C4F477FF09C046EA55E06EEF7FEF8BEFFB
:104420009FEF0E948D1932CD603471052CF46E5FC0
:104430007F4F46EA55E0F3CF46EA55E06DE370E082
:10444000EECFCF010B968B38910598F477FF06C01D
:1044500046EA55E06BEF7FEF0997E3CF61347105D2
:104460000CF414CD46EA55E06DE370E0CF010296FE
:10447000D8CFE038F1050CF409CD77FF07C046EA44
:1044800055E06CEF7FEF8DE790E0CBCF60347105A6
:104490002CF46E5F7F4F46EA55E0F5CF46EA55E0D3
:1044A0006DE370E0F0CF840F951F68E070E00E942C
:1044B000F538AC0191E0443051050CF090E0220F4A
:1044C000290FCC24C394E22E0AE518E04AE159E012
:1044D0006B817C81CF010E94621728CD20E038CD0E
:1044E0004230510561F004974330510509F0D3CDB6
:1044F00090935B0180935A01CECD0496F9CF2C5F47
:104500003F4F30935D0120935C01C5CD8E3009F0A3
:10451000F0CD60915C0170915D016A197B09809119
:104520005A0190915B01CC24C394E12C04EC1DE072
:1045300020E044ED5DE0881999090E94621780919E
:104540005F019091600101979093600180935F01FA
:10455000892B09F0CECD10925B0110925A01109276
:104560005D0110925C0110925E011092F405C1CDC4
:1045700061E0D61203C06F1508F0D2CD6091E3055B
:104580007091E4056A197B096C5171098B819C81DA
:10459000680F791F8091E1059091E20588199909CA
:1045A00080974BEFC42EE12C10E000E020E048EEB5
:1045B00051E1860D971D0E946217B2CD8091F605DC
:1045C000882309F4DBCD27E0281BCC24C394E12CFD
:1045D0000AE612E142E852E170E060E090E080E03B
:1045E0000E94621780918F01909190018F7199279D
:1045F000892B29F48091F60581508093F6058091EE
:10460000F6058111BBCD8091050190910601181628
:1046100019060CF0B3CD81E080936701AFCDFD8129
:10462000FF2309F41FCB4D81612F872D0E949D141C
:10463000882309F45ACB442009F43ECBDD2009F449
:104640002DCB01111CCBFB8125E0FF2309F41BCBF3
:1046500025E119CB089590E080E00895CF92DF9294
:10466000EF92FF926B017C01C114D104E104F104CB
:1046700041F00E941038A70196010E947E386B011C
:104680007C01C701B601FF90EF90DF90CF900895B5
:104690004F925F926F927F928F929F92AF92BF9252
:1046A000DF92EF92FF920F931F93CF93DF9300D08F
:1046B00000D0CDB7DEB7082F162FE1E9F1E080E09A
:1046C00094E0DF019C011D9221503040E1F720E091
:1046D00041E061E0812F0E945B14013009F016C1B6
:1046E00020E045E161E0812F0E945B1420E045E17C
:1046F00062E0812F0E945B1420E045E163E0812F9E
:104700000E945B1420E045E164E0812F0E945B146D
:1047100081E0809391018093920142E0F42E9EEF1C
:10472000492E4F0C842D90E0FC01EF56FE4FA080E7
:104730008E569E4FDC01BC9022E2622E21E0722E4A
:104740003EE1832E31E0932EE12C512CF301619157
:104750003F01660F6A0D8FEF860F8631A8F4D401F2
:104760004C91440F4B0D8FEF840F863168F4812FED
:104770000E947E14813041F4E1E0F0E0EC0FFD1F77
:10478000EE0DF11D5082E3945394BFEF8B1A9B0AF8
:10479000E4E05E12DBCFEE2009F4E8C0EFEFEF0DAE
:1047A000F0E0EF56FE4FB0826E2D70E090E080E0BA
:1047B0000E942E2321E030E02C0F3D1F620F731F5B
:1047C000DB018C9190E0FC01EE5DFE4F2081322FE9
:1047D000330FA30E825E9E4FFC018081982F990FAC
:1047E000B90E4B2D481B6A2D621B20E0812F0E94C1
:1047F0005B1420E04B2D6A2D812F0E945B14EF2D5E
:10480000F0E0EF56FE4FA082E1E0EF0DF0E0F39410
:10481000F394EF56FE4FB082F11081CF8AE0D82E8C
:1048200065E170E080E090E00E942E232B013C01C6
:10483000FFEF4F1A5F0A6F0A7F0AF42C62E170E003
:1048400080E090E00E942E234B015C012FEF821A42
:10485000920AA20AB20AE82C482D642D812F0E94E8
:104860007E148130E9F64FEF480D642D812F0E94B0
:104870007E14813009F07CC041E0480D642D812F09
:104880000E947E14813061F6482D6FEF640D812FF8
:104890000E947E148111C4CF482D61E0640D812FE8
:1048A0000E947E148111BCCF013009F07EC034E03B
:1048B0003F1520F084E1E81609F4B2CF20E04E2D38
:1048C0006F2D812F0E945B14DA94D110A9CF013093
:1048D00009F080C0111106C08091DB07807F8360E2
:1048E0008093DB070F900F900F900F90DF91CF9187
:1048F0001F910F91FF90EF90DF90BF90AF909F902E
:104900008F907F906F905F904F9008950230B1F438
:1049100020E041E062E1812F0E945B1420E041E051
:1049200063E1812F0E945B1420E041E064E1812F6C
:104930000E945B1420E041E065E1E7CE033009F01E
:10494000E7CE20E042E165E1812F0E945B1420E088
:1049500043E165E1812F0E945B1420E044E165E1C1
:10496000812F0E945B1420E045E1E6CFF42C54CF68
:10497000811156CF41E0480D642D812F0E947E1495
:1049800081114ECF482D6FEF640D812F0E947E1450
:10499000813009F045CF482D61E0640D812F0E94E0
:1049A0007E14813009F03CCF7FCF023041F4A1E189
:1049B000AF1508F083CFB2E0EB1280CF31CF0330D8
:1049C00009F07CCFE4E1FE1279CFF1E1FE1508F4A5
:1049D00027CF74CF023049F4111184CF809117068C
:1049E000807F8360809317067DCF033009F07ACFF4
:1049F000111178CF8091B607807F83608093B607CE
:104A000071CF2F923F924F925F926F927F928F92CF
:104A10009F92AF92BF92CF92DF92EF92FF920F934D
:104A20001F93CF93DF9300D000D01F92CDB7DEB796
:104A30008C83862E4B8328E0629F80011124085FBF
:104A4000174F4FEF460F4D8358015B818D815817EB
:104A500009F4ECC065E170E080E090E00E942E2354
:104A60002B013C01EFEF4E1A5E0A6E0A7E0A342CCF
:104A700065E170E080E090E00E942E236B017C01F4
:104A8000FFEFCF1ADF0AEF0AFF0A9C2C4C2D642D92
:104A90008C810E947E148111DDCF2FEF240D29839C
:104AA0004C2D622F8C810E947E14823099F241E05D
:104AB000440D4A834C2D6A818C810E947E14823081
:104AC00049F222242A942C0C422D642D8C810E94C0
:104AD0007E14823009F4BECF4EEF4C0D642D8C81D4
:104AE0000E947E14823009F4B5CF5D815F3F09F4E6
:104AF0008AC0F801682D842D90E02C2D30E04D8186
:104B0000461790F040815C8154130BC04181528163
:104B10004817590731F4438154814217530709F468
:104B200099CF6F5F3896EBCFF801682D2981822FDE
:104B300090E0292D30E04D81461790F040815C8156
:104B400054130BC0418152814817590731F44381F6
:104B500054814217530709F47DCF6F5F3896EBCF2E
:104B6000F801682D2A81822F90E0292D30E04D81B7
:104B7000461790F040815C8154130BC041815281F3
:104B80004817590731F4438154814217530709F4F8
:104B900061CF6F5F3896EBCFF801682D832D90E0E1
:104BA000222D30E04D81461790F040815C815413F6
:104BB0000BC0418152814817590731F44381548118
:104BC0004217530709F446CF6F5F3896EBCFF801D1
:104BD000682D232D30E081E0890D90E04D8146174E
:104BE00090F040815C8154130BC041815281421787
:104BF000530731F4438154814817590709F42ACFE8
:104C00006F5F3896EBCF2C81F5012083832D90E0E8
:104C100092838183892D90E094838383158248E079
:104C2000A40EB11C5D815F5F5D830FCF8AE080932E
:104C300044090F900F900F900F900F90DF91CF913C
:104C40001F910F91FF90EF90DF90CF90BF90AF90AA
:104C50009F908F907F906F905F904F903F902F909C
:104C600008954F925F926F927F92BF92CF92DF92A0
:104C7000EF92FF920F931F93CF93DF93E82EC62EF0
:104C8000F42EB22E28E0429FE0011124C45FD64FDB
:104C90008CE0D82EFB1409F4AAC061E170E080E03A
:104CA00090E00E942E232B013C0125E0420E511C76
:104CB000611C711C042D61E170E080E090E00E94B5
:104CC0002E23AB01BC014B5F5F4F6F4F7F4F142F03
:104CD000642D8C2D0E947E148111DFCF81E0E812BB
:104CE00047C0023011F41531C1F282E00E944F1426
:104CF000782E83E00E944F14582E87E00E944F14B4
:104D0000682EEE2019F086E0FF2019F12FEF7216C1
:104D100029F0521619F064E0621201C062E070E0FE
:104D200090E080E00E942E2380E0611112C08FEF9E
:104D3000581232C0781609F44DC062E070E080E08D
:104D400090E00E942E23672B682B692B09F040C04E
:104D500083E0C8820D9D900111243A8329831D9D13
:104D6000900111243C832B838D83F394289692CF5A
:104D700022E0E21207C0043109F0B7CF113009F088
:104D8000B4CF8BCF83E0E812B0CF053109F0ADCFBF
:104D9000143109F482CFA9CF2FEF72120CC062E058
:104DA00070E080E090E00E942E23672B682B692B37
:104DB000E1F084E0CECF8FEF68120CC062E070E0CB
:104DC00080E090E00E942E23672B682B692B89F7E7
:104DD00087E0BFCF62E070E080E090E00E942E2389
:104DE000672B682B692B09F4B3CF82E0B2CFDF9138
:104DF000CF911F910F91FF90EF90DF90CF90BF90D8
:104E00007F906F905F904F900895CF93DF93C82F5E
:104E100068E770E080E090E00E942E232FE0C29FC0
:104E2000E0011124C950DA4FFE01EE59FD4F7183A4
:104E3000608360E470E080E090E00E942E23FE0139
:104E4000EC59FD4F605471098109910971836083A8
:104E500062E070E080E090E00E942E23C959DD4FAF
:104E60006F5F7F4F8F4F9F4F79836883DF91CF9123
:104E700008954F925F926F927F928F929F92AF921E
:104E8000BF92CF92DF92EF92FF920F931F93CF9337
:104E9000DF93A82E162F942E2FE0629FE00111249D
:104EA000C85AD74F8CE0B82E94E0492E512C612C73
:104EB000712C1915D8F563E170E080E090E00E9454
:104EC0002E236B017C0124E0C20ED11CE11CF11CDD
:104ED00063E170E080E090E00E942E23AB01BC0112
:104EE0004C5F5F4F6F4F7F4F042F6C2D8A2D0E94B8
:104EF0007E148111E0CFA882CB9C900111243A83CB
:104F000029830B9DC00111249C838B8318861986ED
:104F10003B872A879D878C870E941038A3019201C6
:104F20000E947E386E871F5F2F96C3CFDF91CF918F
:104F30001F910F91FF90EF90DF90CF90BF90AF90B7
:104F40009F908F907F906F905F904F9008959F9269
:104F5000AF92BF92CF92DF92EF92FF920F931F9387
:104F6000CF93DF93E82E1092690168E070E080E053
:104F700090E00E942E23062F8FEF800F833008F0E1
:104F800000E081E1A82E47EF55E027E190E080E0C6
:104F9000FA01E80FF91FA082019687319105C1F748
:104FA0002150495E5F4F2111F1CF60E0802F0E94B8
:104FB000482361E0802F0E944823011128C1D12C91
:104FC000C12C12E0DFEFD10FC1E0FF24F394FC0EFF
:104FD000C13011F4D13069F14D2F6C2F80E00E9467
:104FE0009D14811126C04D2F6C2F81E00E949D14CD
:104FF00081111FC0BB24BA94BC0E4D2F6B2D0E9493
:105000009D14982E4D2D6C2F80E00E949D149110C0
:1050100091C0882371F04D2F6F2D80E00E949D1468
:10502000882339F0412F6C2F80E00E949D1481115C
:10503000A0C0CF2DC63149F61F5FD394173109F0B8
:10504000C1CFCC2009F49FCF44E060E080E00E9413
:10505000012549E065E081E00E940125E9E5F8E0ED
:10506000118210821382128215863F9689E0ED30FC
:10507000F807B1F74091450960E080E00E943927C8
:10508000409145094A5F66E081E00E94392723E0AC
:1050900040E060E0802F0E94312626E043E061E09E
:1050A000802F0E94312680916B012CE030E03093FC
:1050B000E2052093E1053093E4052093E305109287
:1050C000E5051092E60592E09093E705EE2009F4DD
:1050D000C9C01092E8051092F505811105C081E064
:1050E0008093E9058093E8051092F3051092F4058A
:1050F0001092470110924601109249011092480106
:10510000109203011092040110926801109267013D
:1051100080E09FEF9093060180930501DF91CF918E
:105120001F910F91FF90EF90DF90CF90BF90AF90C5
:105130009F9008954D2F6F2D882309F46FCF80E045
:105140000E949D14811106C0412F6C2F0E949D1456
:1051500081110FC04D2F6F2D80E00E949D14882378
:1051600009F467CF412F6C2F80E00E949D148111BC
:1051700060CF4D2F6B2D81E00E949D14B82E4D2DD8
:105180006C2F81E00E949D14B11021C04D2F6F2D16
:10519000882309F44ECF81E00E949D14882309F4EE
:1051A00048CF412F6C2F81E00E949D14882309F481
:1051B00040CF22E04D2F6C2F80E00E945B1422E054
:1051C0004D2F6C2F81E00E945B14C39432CF4D2F82
:1051D0006F2D882301F381E00E949D14811107C087
:1051E000412F6C2F81E00E949D148111E2CF4D2F41
:1051F0006F2D81E00E949D14882309F41ACF412F5E
:105200006C2F81E00E949D14811113CFD2CF013009
:1052100069F48091DA07807F82608093DA07809159
:10522000E607807F82608093E6070ECF023069F444
:1052300080911806807F82608093180680912406F2
:10524000807F826080932406FFCE8091E407807F78
:1052500082608093E4078091F007807F8260809372
:10526000F007F2CE811140CF8091E80536CF2F9222
:105270003F924F925F926F927F928F929F92AF92E6
:10528000BF92CF92DF92EF92FF920F931F93CF9333
:10529000DF9300D000D000D01F92CDB7DEB7809151
:1052A0008F0180FDEAC008E518E08CE0E82EF12CC3
:1052B00094E0292E312C9E012D5F3F4F3C832B83A0
:1052C000C8010E94761B882309F4CFC0D80111962B
:1052D000ED91FC91129713962D913C9114971E9687
:1052E0008C91082E000C990BDC01AE5DBE4FDC905A
:1052F000825E9E4FDC014C91CF01B7010E94F538D0
:10530000892B09F03DC1C901B7010E94F538892BED
:1053100009F036C1C901BCE04B02800D911D11247A
:10532000B7010E94F538462FCF012D2D3CE0230216
:10533000800D911D1124B7010E94F538D8018C9180
:105340000E947E14482E0E94103824E630E040E08F
:1053500050E00E947E38F8012685411006C0643175
:105360007105810591050CF0E6C0022E000C330B8F
:10537000C9010196B1010E94F538D82E8983C9016F
:105380000396B1010E94F538C82E8A830E94103816
:1053900022E030E040E050E00E947E38672B682B2E
:1053A000692B11F4C982DA82D8011196AD90BC90B4
:1053B00012971396CD90DC901497BC91BF83FE0199
:1053C0003196FE83ED83AD81BE815D90BE83AD835A
:1053D000852D90E0FC01EE5DFE4F20813501BCE0A3
:1053E0002B02600C711C1124825E9E4FFC01808197
:1053F0004601FCE08F02800C911C1124C401B7010E
:105400000E94E138462FC301B7010E94E1388F8125
:105410000E947E14811156C0D8011A968D919C91DC
:105420001B976816790639F41C968D919C91881605
:10543000990609F447C0F801B386A286D586C486CA
:105440005686852D052C000C990B552019F0F2E09D
:105450005F122CC0825E9E4FDC018C91880F990BED
:10546000C80ED91EF801D482C382015F1F4FECE041
:10547000F9E0E017F10709F023CF27960FB6F8946B
:10548000DEBF0FBECDBFDF91CF911F910F91FF9077
:10549000EF90DF90CF90BF90AF909F908F907F90D4
:1054A0006F905F904F903F902F9008958E5D9E4F2C
:1054B000DC018C91880F990BA80EB91EF801B282FD
:1054C000A182D3CF2B813C818D819E812817390702
:1054D00009F079CFD8011B96BC92AE921A971D960F
:1054E000DC92CE921C971E968C911E97082E000C73
:1054F000990BFC01EE5DFE4F2081220F330BA20EB3
:10550000B31E1296BC92AE921197FC01E25EFE4F62
:105510002081220F330BC20ED31E1496DC92CE9242
:105520001397442009F4A1CF0296B1010E94F538E7
:10553000F80186879ACFD80161817281738762876B
:105540004381548155874487022E000C330BF901A7
:10555000EE5DFE4F8081880F990B860F971F129684
:105560009C938E931197225E3E4FF9018081880FA4
:10557000990B840F951F14969C938E93139775CF58
:10558000D8011B96FC93EE931A971D963C932E938D
:105590001C978D2D880F990BE80FF91F1296FC931D
:1055A000EE931197440F550B240F351F14963C931F
:1055B0002E9313975ACFCF93DF9300D0CDB7DEB79A
:1055C00082EB90E00E946838898383EB90E00E9430
:1055D00068388A8389819A810F900F90DF91CF91EB
:1055E0000895FF920F931F93CF93DF93EC01F62E54
:1055F00008811981C8010E946838F81621F06F2DC2
:10560000C8010E947038CE01DF91CF911F910F9198
:10561000FF9008951F920F920FB60F9211248F934F
:105620009F938091E1009091E100937F9093E1003E
:1056300083FF0FC01092E90091E09093EB0010926D
:10564000EC0092E39093ED0010928E0198E090931D
:10565000F00082FF22C093E09093E9009091F20065
:10566000992319F09AE39093E80090917F01992390
:1056700041F090917F01915090937F01911101C071
:105680005D9A90918D01992341F090918D019150F7
:1056900090938D01911101C0289A84FF18C08091C8
:1056A000E2008E7E81608093E2008091E1008F7E37
:1056B0008093E100809180018E7E806180938001E3
:1056C0009F918F910F900FBE0F901F90189580FFA4
:1056D000F7CF8091E2008E7E80618093E20080911E
:1056E000E1008E7E8093E100809180018E7E81605A
:1056F000E5CF1F920F920FB60F921124CF92DF9237
:10570000EF92FF920F931F932F933F934F935F93CB
:105710006F937F938F939F93AF93BF93EF93FF9379
:10572000CF93DF93CDB7DEB76C97DEBFCDBF1092BE
:10573000E9008091E80083FF25C068E0CE0145962E
:105740000E94751682EF8093E8008D8987FF39C02B
:105750009091E80090FFFCCF982F907609F034C12B
:105760009E894F89588D2F89F88C911131C08038CE
:1057700061F580917E018093F1001092F1008EEF2F
:105780008093E8006C960FB6F894DEBF0FBECDBFD5
:10579000DF91CF91FF91EF91BF91AF919F918F9149
:1057A0007F916F915F914F913F912F911F910F9139
:1057B000FF90EF90DF90CF900F900FBE0F901F9053
:1057C00018959EEF9093E800C7CF1092F100D5CFC7
:1057D000913059F48111D3CF4130510581F6809138
:1057E0007E018D7F80937E01CACF933049F4811171
:1057F000C6CF4130510519F680917E018260F2CF0B
:10580000953041F48091E80080FFFCCF2068209320
:10581000E300B5CF963009F0A9C00B8D1C8D22E0B6
:105820001092E90010927C0110927B01F2122EC0BE
:1058300010927A01109279010E9444161F8299E019
:105840009983FA8291E09E8390EA98879AEF9987EC
:1058500020917B0130917C01275F3F4F3C832B835C
:105860008D831092E90010927C0110927B011093BD
:105870007A010093790149E050E0BE016F5F7F4FEC
:1058800080E00E941E160E94441679CF10937A0180
:10589000009379010E942815DC0112960D911C914C
:1058A0000115110509F451C1D801ED91FC91048055
:1058B000F581E02DBE016B5E7F4FC8010995009711
:1058C00009F03EC1F80100851185EACFF3E0FF122F
:1058D0000EC08F89882309F440C0823061F440E80B
:1058E00067E089E198E20E94EB15811148CF81E2DF
:1058F0008093EB0047CF813029F440E86BE08DE0E6
:1059000098E2F1CF833099F70E942815DC011296B6
:10591000ED90FC908E010F5F1F4F6801E114F104C0
:1059200079F0D701ED91FC910680F781E02DB80167
:10593000C7010995080F111DF701E084F184EECF2E
:10594000D8011C92F60101900020E9F73197BF01C0
:105950006C197D0940E0C601C6CF67EF77E2FB0115
:10596000449150E080E80E941E1609CF973009F458
:10597000BECF983021F481E08093F10000CF9930C0
:1059800009F0FDCE837009F0B2CFE8E1F1E081E0EB
:1059900031E096E32191222371F08093E900309366
:1059A000EB00DF0111972C912093EC009093ED0018
:1059B0008F5F873079F78EE78093EA001092EA00D4
:1059C0008F8980938E01DBCE8B8D9C8D1092E900A8
:1059D00010927C0110927B0190937A01809379015F
:1059E000898D811192C08E899D89913A49F48132C5
:1059F00009F07DCF47E050E06BE071E080E0B3CF8D
:105A0000913209F074CF833269F48F89988DB0E0B8
:105A1000A0E08093070190930801A0930901B0933F
:105A20000A01ADCE803269F48091E80082FFFCCF9C
:105A300067E08BE091E00E9475168BEF8093E800A1
:105A40009ECE823209F09BCE8F8980931201EEEFB9
:105A5000FFE7859194918B3F9C4D51F1E0E0F8E098
:105A600080910B0190910C01A0910D01B0910E015C
:105A7000803B9440A105B105F1F48091120180FDB5
:105A80001AC0EE3F8AE0F80789F587E797E7918328
:105A900080838091600080937D0188E19BE00FB658
:105AA000F894A895809360000FBE9093600067CE35
:105AB000EEEFFAE0D5CF808191818737974709F0E3
:105AC0005ECEA8958091600088618093600080918F
:105AD0007D0180936000EE3F2AE0F20789F080911B
